{
	"contracts/MyContract.sol": {
		"MyContract": {
			"abi": [
				{
					"inputs": [],
					"name": "getValue",
					"outputs": [
						{
							"internalType": "uint256",
							"name": "",
							"type": "uint256"
						}
					],
					"stateMutability": "pure",
					"type": "function"
				},
				{
					"inputs": [],
					"name": "myAddress",
					"outputs": [
						{
							"internalType": "address",
							"name": "",
							"type": "address"
						}
					],
					"stateMutability": "view",
					"type": "function"
				},
				{
					"inputs": [],
					"name": "myName",
					"outputs": [
						{
							"internalType": "bytes32",
							"name": "",
							"type": "bytes32"
						}
					],
					"stateMutability": "view",
					"type": "function"
				},
				{
					"inputs": [],
					"name": "myString",
					"outputs": [
						{
							"internalType": "string",
							"name": "",
							"type": "string"
						}
					],
					"stateMutability": "view",
					"type": "function"
				},
				{
					"inputs": [],
					"name": "myStruct",
					"outputs": [
						{
							"internalType": "string",
							"name": "name",
							"type": "string"
						},
						{
							"internalType": "int256",
							"name": "number",
							"type": "int256"
						}
					],
					"stateMutability": "view",
					"type": "function"
				},
				{
					"inputs": [],
					"name": "myUint",
					"outputs": [
						{
							"internalType": "uint256",
							"name": "",
							"type": "uint256"
						}
					],
					"stateMutability": "view",
					"type": "function"
				},
				{
					"inputs": [],
					"name": "myUint256",
					"outputs": [
						{
							"internalType": "uint256",
							"name": "",
							"type": "uint256"
						}
					],
					"stateMutability": "view",
					"type": "function"
				},
				{
					"inputs": [],
					"name": "myUint8",
					"outputs": [
						{
							"internalType": "uint8",
							"name": "",
							"type": "uint8"
						}
					],
					"stateMutability": "view",
					"type": "function"
				}
			],
			"devdoc": {
				"kind": "dev",
				"methods": {},
				"version": 1
			},
			"evm": {
				"assembly": "    /* \"contracts/MyContract.sol\":56:591  contract MyContract{... */\n  mstore(0x40, 0x80)\n    /* \"contracts/MyContract.sol\":123:124  1 */\n  0x01\n    /* \"contracts/MyContract.sol\":103:124  uint public myUint =1 */\n  0x00\n  sstore\n    /* \"contracts/MyContract.sol\":155:156  2 */\n  0x02\n    /* \"contracts/MyContract.sol\":130:156  uint256 public myUint256=2 */\n  0x01\n  sstore\n    /* \"contracts/MyContract.sol\":183:184  3 */\n  0x03\n    /* \"contracts/MyContract.sol\":162:184  uint8 public myUint8=3 */\n  0x02\n  exp(0x0100, 0x00)\n  dup2\n  sload\n  dup2\n  0xff\n  mul\n  not\n  and\n  swap1\n  dup4\n  0xff\n  and\n  mul\n  or\n  swap1\n  sstore\n  pop\n    /* \"contracts/MyContract.sol\":190:229  string public myString=\"muchira junior\" */\n  mload(0x40)\n  dup1\n  0x40\n  add\n  0x40\n  mstore\n  dup1\n  0x0e\n  dup2\n  mstore\n  0x20\n  add\n  0x6d756368697261206a756e696f72000000000000000000000000000000000000\n  dup2\n  mstore\n  pop\n  0x03\n  swap1\n  dup1\n  mload\n  swap1\n  0x20\n  add\n  swap1\n  tag_1\n  swap3\n  swap2\n  swap1\n  tag_2\n  jump\t// in\ntag_1:\n  pop\n    /* \"contracts/MyContract.sol\":235:265  bytes32 public myName=\"junior\" */\n  sstore(0x04, 0x6a756e696f720000000000000000000000000000000000000000000000000000)\n    /* \"contracts/MyContract.sol\":298:340  0xd9145CCE52D386f254917e481eB44e9943F39138 */\n  0xd9145cce52d386f254917e481eb44e9943f39138\n    /* \"contracts/MyContract.sol\":271:340  address public myAddress=  0xd9145CCE52D386f254917e481eB44e9943F39138 */\n  0x05\n  exp(0x0100, 0x00)\n  dup2\n  sload\n  dup2\n  0xffffffffffffffffffffffffffffffffffffffff\n  mul\n  not\n  and\n  swap1\n  dup4\n  0xffffffffffffffffffffffffffffffffffffffff\n  and\n  mul\n  or\n  swap1\n  sstore\n  pop\n    /* \"contracts/MyContract.sol\":441:461  MyStruct(\"junior\",2) */\n  mload(0x40)\n  dup1\n  0x40\n  add\n  0x40\n  mstore\n  dup1\n  mload(0x40)\n  dup1\n  0x40\n  add\n  0x40\n  mstore\n  dup1\n  0x06\n  dup2\n  mstore\n  0x20\n  add\n  0x6a756e696f720000000000000000000000000000000000000000000000000000\n  dup2\n  mstore\n  pop\n  dup2\n  mstore\n  0x20\n  add\n    /* \"contracts/MyContract.sol\":459:460  2 */\n  0x02\n    /* \"contracts/MyContract.sol\":441:461  MyStruct(\"junior\",2) */\n  dup2\n  mstore\n  pop\n    /* \"contracts/MyContract.sol\":416:461  MyStruct public myStruct=MyStruct(\"junior\",2) */\n  0x06\n  0x00\n  dup3\n  add\n  mload\n  dup2\n  0x00\n  add\n  swap1\n  dup1\n  mload\n  swap1\n  0x20\n  add\n  swap1\n  tag_3\n  swap3\n  swap2\n  swap1\n  tag_2\n  jump\t// in\ntag_3:\n  pop\n  0x20\n  dup3\n  add\n  mload\n  dup2\n  0x01\n  add\n  sstore\n  pop\n  pop\n    /* \"contracts/MyContract.sol\":56:591  contract MyContract{... */\n  callvalue\n  dup1\n  iszero\n  tag_4\n  jumpi\n  0x00\n  dup1\n  revert\ntag_4:\n  pop\n  jump(tag_5)\ntag_2:\n  dup3\n  dup1\n  sload\n  tag_6\n  swap1\n  tag_7\n  jump\t// in\ntag_6:\n  swap1\n  0x00\n  mstore\n  keccak256(0x00, 0x20)\n  swap1\n  0x1f\n  add\n  0x20\n  swap1\n  div\n  dup2\n  add\n  swap3\n  dup3\n  tag_9\n  jumpi\n  0x00\n  dup6\n  sstore\n  jump(tag_8)\ntag_9:\n  dup3\n  0x1f\n  lt\n  tag_10\n  jumpi\n  dup1\n  mload\n  not(0xff)\n  and\n  dup4\n  dup1\n  add\n  or\n  dup6\n  sstore\n  jump(tag_8)\ntag_10:\n  dup3\n  dup1\n  add\n  0x01\n  add\n  dup6\n  sstore\n  dup3\n  iszero\n  tag_8\n  jumpi\n  swap2\n  dup3\n  add\ntag_11:\n  dup3\n  dup2\n  gt\n  iszero\n  tag_12\n  jumpi\n  dup3\n  mload\n  dup3\n  sstore\n  swap2\n  0x20\n  add\n  swap2\n  swap1\n  0x01\n  add\n  swap1\n  jump(tag_11)\ntag_12:\ntag_8:\n  pop\n  swap1\n  pop\n  tag_13\n  swap2\n  swap1\n  tag_14\n  jump\t// in\ntag_13:\n  pop\n  swap1\n  jump\t// out\ntag_14:\ntag_15:\n  dup1\n  dup3\n  gt\n  iszero\n  tag_16\n  jumpi\n  0x00\n  dup2\n  0x00\n  swap1\n  sstore\n  pop\n  0x01\n  add\n  jump(tag_15)\ntag_16:\n  pop\n  swap1\n  jump\t// out\n    /* \"#utility.yul\":7:327   */\ntag_7:\n    /* \"#utility.yul\":51:57   */\n  0x00\n    /* \"#utility.yul\":88:89   */\n  0x02\n    /* \"#utility.yul\":82:86   */\n  dup3\n    /* \"#utility.yul\":78:90   */\n  div\n    /* \"#utility.yul\":68:90   */\n  swap1\n  pop\n    /* \"#utility.yul\":135:136   */\n  0x01\n    /* \"#utility.yul\":129:133   */\n  dup3\n    /* \"#utility.yul\":125:137   */\n  and\n    /* \"#utility.yul\":156:174   */\n  dup1\n    /* \"#utility.yul\":146:227   */\n  tag_19\n  jumpi\n    /* \"#utility.yul\":212:216   */\n  0x7f\n    /* \"#utility.yul\":204:210   */\n  dup3\n    /* \"#utility.yul\":200:217   */\n  and\n    /* \"#utility.yul\":190:217   */\n  swap2\n  pop\n    /* \"#utility.yul\":146:227   */\ntag_19:\n    /* \"#utility.yul\":274:276   */\n  0x20\n    /* \"#utility.yul\":266:272   */\n  dup3\n    /* \"#utility.yul\":263:277   */\n  lt\n    /* \"#utility.yul\":243:261   */\n  dup2\n    /* \"#utility.yul\":240:278   */\n  eq\n    /* \"#utility.yul\":237:321   */\n  iszero\n  tag_20\n  jumpi\n    /* \"#utility.yul\":293:311   */\n  tag_21\n  tag_22\n  jump\t// in\ntag_21:\n    /* \"#utility.yul\":237:321   */\ntag_20:\n    /* \"#utility.yul\":58:327   */\n  pop\n    /* \"#utility.yul\":7:327   */\n  swap2\n  swap1\n  pop\n  jump\t// out\n    /* \"#utility.yul\":333:513   */\ntag_22:\n    /* \"#utility.yul\":381:458   */\n  0x4e487b7100000000000000000000000000000000000000000000000000000000\n    /* \"#utility.yul\":378:379   */\n  0x00\n    /* \"#utility.yul\":371:459   */\n  mstore\n    /* \"#utility.yul\":478:482   */\n  0x22\n    /* \"#utility.yul\":475:476   */\n  0x04\n    /* \"#utility.yul\":468:483   */\n  mstore\n    /* \"#utility.yul\":502:506   */\n  0x24\n    /* \"#utility.yul\":499:500   */\n  0x00\n    /* \"#utility.yul\":492:507   */\n  revert\n    /* \"contracts/MyContract.sol\":56:591  contract MyContract{... */\ntag_5:\n  dataSize(sub_0)\n  dup1\n  dataOffset(sub_0)\n  0x00\n  codecopy\n  0x00\n  return\nstop\n\nsub_0: assembly {\n        /* \"contracts/MyContract.sol\":56:591  contract MyContract{... */\n      mstore(0x40, 0x80)\n      callvalue\n      dup1\n      iszero\n      tag_1\n      jumpi\n      0x00\n      dup1\n      revert\n    tag_1:\n      pop\n      jumpi(tag_2, lt(calldatasize, 0x04))\n      shr(0xe0, calldataload(0x00))\n      dup1\n      0x8bc9fe6c\n      gt\n      tag_11\n      jumpi\n      dup1\n      0x8bc9fe6c\n      eq\n      tag_7\n      jumpi\n      dup1\n      0xa7dbce1c\n      eq\n      tag_8\n      jumpi\n      dup1\n      0xe2a4b2af\n      eq\n      tag_9\n      jumpi\n      dup1\n      0xfae2dd4b\n      eq\n      tag_10\n      jumpi\n      jump(tag_2)\n    tag_11:\n      dup1\n      0x06540f7e\n      eq\n      tag_3\n      jumpi\n      dup1\n      0x20965255\n      eq\n      tag_4\n      jumpi\n      dup1\n      0x26b85ee1\n      eq\n      tag_5\n      jumpi\n      dup1\n      0x492bfa18\n      eq\n      tag_6\n      jumpi\n    tag_2:\n      0x00\n      dup1\n      revert\n        /* \"contracts/MyContract.sol\":103:124  uint public myUint =1 */\n    tag_3:\n      tag_12\n      tag_13\n      jump\t// in\n    tag_12:\n      mload(0x40)\n      tag_14\n      swap2\n      swap1\n      tag_15\n      jump\t// in\n    tag_14:\n      mload(0x40)\n      dup1\n      swap2\n      sub\n      swap1\n      return\n        /* \"contracts/MyContract.sol\":468:589  function getValue()public pure returns(uint){... */\n    tag_4:\n      tag_16\n      tag_17\n      jump\t// in\n    tag_16:\n      mload(0x40)\n      tag_18\n      swap2\n      swap1\n      tag_15\n      jump\t// in\n    tag_18:\n      mload(0x40)\n      dup1\n      swap2\n      sub\n      swap1\n      return\n        /* \"contracts/MyContract.sol\":271:340  address public myAddress=  0xd9145CCE52D386f254917e481eB44e9943F39138 */\n    tag_5:\n      tag_19\n      tag_20\n      jump\t// in\n    tag_19:\n      mload(0x40)\n      tag_21\n      swap2\n      swap1\n      tag_22\n      jump\t// in\n    tag_21:\n      mload(0x40)\n      dup1\n      swap2\n      sub\n      swap1\n      return\n        /* \"contracts/MyContract.sol\":190:229  string public myString=\"muchira junior\" */\n    tag_6:\n      tag_23\n      tag_24\n      jump\t// in\n    tag_23:\n      mload(0x40)\n      tag_25\n      swap2\n      swap1\n      tag_26\n      jump\t// in\n    tag_25:\n      mload(0x40)\n      dup1\n      swap2\n      sub\n      swap1\n      return\n        /* \"contracts/MyContract.sol\":416:461  MyStruct public myStruct=MyStruct(\"junior\",2) */\n    tag_7:\n      tag_27\n      tag_28\n      jump\t// in\n    tag_27:\n      mload(0x40)\n      tag_29\n      swap3\n      swap2\n      swap1\n      tag_30\n      jump\t// in\n    tag_29:\n      mload(0x40)\n      dup1\n      swap2\n      sub\n      swap1\n      return\n        /* \"contracts/MyContract.sol\":130:156  uint256 public myUint256=2 */\n    tag_8:\n      tag_31\n      tag_32\n      jump\t// in\n    tag_31:\n      mload(0x40)\n      tag_33\n      swap2\n      swap1\n      tag_15\n      jump\t// in\n    tag_33:\n      mload(0x40)\n      dup1\n      swap2\n      sub\n      swap1\n      return\n        /* \"contracts/MyContract.sol\":162:184  uint8 public myUint8=3 */\n    tag_9:\n      tag_34\n      tag_35\n      jump\t// in\n    tag_34:\n      mload(0x40)\n      tag_36\n      swap2\n      swap1\n      tag_37\n      jump\t// in\n    tag_36:\n      mload(0x40)\n      dup1\n      swap2\n      sub\n      swap1\n      return\n        /* \"contracts/MyContract.sol\":235:265  bytes32 public myName=\"junior\" */\n    tag_10:\n      tag_38\n      tag_39\n      jump\t// in\n    tag_38:\n      mload(0x40)\n      tag_40\n      swap2\n      swap1\n      tag_41\n      jump\t// in\n    tag_40:\n      mload(0x40)\n      dup1\n      swap2\n      sub\n      swap1\n      return\n        /* \"contracts/MyContract.sol\":103:124  uint public myUint =1 */\n    tag_13:\n      sload(0x00)\n      dup2\n      jump\t// out\n        /* \"contracts/MyContract.sol\":468:589  function getValue()public pure returns(uint){... */\n    tag_17:\n        /* \"contracts/MyContract.sol\":507:511  uint */\n      0x00\n        /* \"contracts/MyContract.sol\":547:557  uint value */\n      dup1\n        /* \"contracts/MyContract.sol\":558:560  10 */\n      0x0a\n        /* \"contracts/MyContract.sol\":547:560  uint value=10 */\n      swap1\n      pop\n        /* \"contracts/MyContract.sol\":577:582  value */\n      dup1\n        /* \"contracts/MyContract.sol\":570:582  return value */\n      swap2\n      pop\n      pop\n        /* \"contracts/MyContract.sol\":468:589  function getValue()public pure returns(uint){... */\n      swap1\n      jump\t// out\n        /* \"contracts/MyContract.sol\":271:340  address public myAddress=  0xd9145CCE52D386f254917e481eB44e9943F39138 */\n    tag_20:\n      0x05\n      0x00\n      swap1\n      sload\n      swap1\n      0x0100\n      exp\n      swap1\n      div\n      0xffffffffffffffffffffffffffffffffffffffff\n      and\n      dup2\n      jump\t// out\n        /* \"contracts/MyContract.sol\":190:229  string public myString=\"muchira junior\" */\n    tag_24:\n      0x03\n      dup1\n      sload\n      tag_43\n      swap1\n      tag_44\n      jump\t// in\n    tag_43:\n      dup1\n      0x1f\n      add\n      0x20\n      dup1\n      swap2\n      div\n      mul\n      0x20\n      add\n      mload(0x40)\n      swap1\n      dup2\n      add\n      0x40\n      mstore\n      dup1\n      swap3\n      swap2\n      swap1\n      dup2\n      dup2\n      mstore\n      0x20\n      add\n      dup3\n      dup1\n      sload\n      tag_45\n      swap1\n      tag_44\n      jump\t// in\n    tag_45:\n      dup1\n      iszero\n      tag_46\n      jumpi\n      dup1\n      0x1f\n      lt\n      tag_47\n      jumpi\n      0x0100\n      dup1\n      dup4\n      sload\n      div\n      mul\n      dup4\n      mstore\n      swap2\n      0x20\n      add\n      swap2\n      jump(tag_46)\n    tag_47:\n      dup3\n      add\n      swap2\n      swap1\n      0x00\n      mstore\n      keccak256(0x00, 0x20)\n      swap1\n    tag_48:\n      dup2\n      sload\n      dup2\n      mstore\n      swap1\n      0x01\n      add\n      swap1\n      0x20\n      add\n      dup1\n      dup4\n      gt\n      tag_48\n      jumpi\n      dup3\n      swap1\n      sub\n      0x1f\n      and\n      dup3\n      add\n      swap2\n    tag_46:\n      pop\n      pop\n      pop\n      pop\n      pop\n      dup2\n      jump\t// out\n        /* \"contracts/MyContract.sol\":416:461  MyStruct public myStruct=MyStruct(\"junior\",2) */\n    tag_28:\n      0x06\n      dup1\n      0x00\n      add\n      dup1\n      sload\n      tag_49\n      swap1\n      tag_44\n      jump\t// in\n    tag_49:\n      dup1\n      0x1f\n      add\n      0x20\n      dup1\n      swap2\n      div\n      mul\n      0x20\n      add\n      mload(0x40)\n      swap1\n      dup2\n      add\n      0x40\n      mstore\n      dup1\n      swap3\n      swap2\n      swap1\n      dup2\n      dup2\n      mstore\n      0x20\n      add\n      dup3\n      dup1\n      sload\n      tag_50\n      swap1\n      tag_44\n      jump\t// in\n    tag_50:\n      dup1\n      iszero\n      tag_51\n      jumpi\n      dup1\n      0x1f\n      lt\n      tag_52\n      jumpi\n      0x0100\n      dup1\n      dup4\n      sload\n      div\n      mul\n      dup4\n      mstore\n      swap2\n      0x20\n      add\n      swap2\n      jump(tag_51)\n    tag_52:\n      dup3\n      add\n      swap2\n      swap1\n      0x00\n      mstore\n      keccak256(0x00, 0x20)\n      swap1\n    tag_53:\n      dup2\n      sload\n      dup2\n      mstore\n      swap1\n      0x01\n      add\n      swap1\n      0x20\n      add\n      dup1\n      dup4\n      gt\n      tag_53\n      jumpi\n      dup3\n      swap1\n      sub\n      0x1f\n      and\n      dup3\n      add\n      swap2\n    tag_51:\n      pop\n      pop\n      pop\n      pop\n      pop\n      swap1\n      dup1\n      0x01\n      add\n      sload\n      swap1\n      pop\n      dup3\n      jump\t// out\n        /* \"contracts/MyContract.sol\":130:156  uint256 public myUint256=2 */\n    tag_32:\n      sload(0x01)\n      dup2\n      jump\t// out\n        /* \"contracts/MyContract.sol\":162:184  uint8 public myUint8=3 */\n    tag_35:\n      0x02\n      0x00\n      swap1\n      sload\n      swap1\n      0x0100\n      exp\n      swap1\n      div\n      0xff\n      and\n      dup2\n      jump\t// out\n        /* \"contracts/MyContract.sol\":235:265  bytes32 public myName=\"junior\" */\n    tag_39:\n      sload(0x04)\n      dup2\n      jump\t// out\n        /* \"#utility.yul\":7:125   */\n    tag_55:\n        /* \"#utility.yul\":94:118   */\n      tag_57\n        /* \"#utility.yul\":112:117   */\n      dup2\n        /* \"#utility.yul\":94:118   */\n      tag_58\n      jump\t// in\n    tag_57:\n        /* \"#utility.yul\":89:92   */\n      dup3\n        /* \"#utility.yul\":82:119   */\n      mstore\n        /* \"#utility.yul\":7:125   */\n      pop\n      pop\n      jump\t// out\n        /* \"#utility.yul\":131:249   */\n    tag_59:\n        /* \"#utility.yul\":218:242   */\n      tag_61\n        /* \"#utility.yul\":236:241   */\n      dup2\n        /* \"#utility.yul\":218:242   */\n      tag_62\n      jump\t// in\n    tag_61:\n        /* \"#utility.yul\":213:216   */\n      dup3\n        /* \"#utility.yul\":206:243   */\n      mstore\n        /* \"#utility.yul\":131:249   */\n      pop\n      pop\n      jump\t// out\n        /* \"#utility.yul\":255:370   */\n    tag_63:\n        /* \"#utility.yul\":340:363   */\n      tag_65\n        /* \"#utility.yul\":357:362   */\n      dup2\n        /* \"#utility.yul\":340:363   */\n      tag_66\n      jump\t// in\n    tag_65:\n        /* \"#utility.yul\":335:338   */\n      dup3\n        /* \"#utility.yul\":328:364   */\n      mstore\n        /* \"#utility.yul\":255:370   */\n      pop\n      pop\n      jump\t// out\n        /* \"#utility.yul\":376:740   */\n    tag_67:\n        /* \"#utility.yul\":464:467   */\n      0x00\n        /* \"#utility.yul\":492:531   */\n      tag_69\n        /* \"#utility.yul\":525:530   */\n      dup3\n        /* \"#utility.yul\":492:531   */\n      tag_70\n      jump\t// in\n    tag_69:\n        /* \"#utility.yul\":547:618   */\n      tag_71\n        /* \"#utility.yul\":611:617   */\n      dup2\n        /* \"#utility.yul\":606:609   */\n      dup6\n        /* \"#utility.yul\":547:618   */\n      tag_72\n      jump\t// in\n    tag_71:\n        /* \"#utility.yul\":540:618   */\n      swap4\n      pop\n        /* \"#utility.yul\":627:679   */\n      tag_73\n        /* \"#utility.yul\":672:678   */\n      dup2\n        /* \"#utility.yul\":667:670   */\n      dup6\n        /* \"#utility.yul\":660:664   */\n      0x20\n        /* \"#utility.yul\":653:658   */\n      dup7\n        /* \"#utility.yul\":649:665   */\n      add\n        /* \"#utility.yul\":627:679   */\n      tag_74\n      jump\t// in\n    tag_73:\n        /* \"#utility.yul\":704:733   */\n      tag_75\n        /* \"#utility.yul\":726:732   */\n      dup2\n        /* \"#utility.yul\":704:733   */\n      tag_76\n      jump\t// in\n    tag_75:\n        /* \"#utility.yul\":699:702   */\n      dup5\n        /* \"#utility.yul\":695:734   */\n      add\n        /* \"#utility.yul\":688:734   */\n      swap2\n      pop\n        /* \"#utility.yul\":468:740   */\n      pop\n        /* \"#utility.yul\":376:740   */\n      swap3\n      swap2\n      pop\n      pop\n      jump\t// out\n        /* \"#utility.yul\":746:864   */\n    tag_77:\n        /* \"#utility.yul\":833:857   */\n      tag_79\n        /* \"#utility.yul\":851:856   */\n      dup2\n        /* \"#utility.yul\":833:857   */\n      tag_80\n      jump\t// in\n    tag_79:\n        /* \"#utility.yul\":828:831   */\n      dup3\n        /* \"#utility.yul\":821:858   */\n      mstore\n        /* \"#utility.yul\":746:864   */\n      pop\n      pop\n      jump\t// out\n        /* \"#utility.yul\":870:982   */\n    tag_81:\n        /* \"#utility.yul\":953:975   */\n      tag_83\n        /* \"#utility.yul\":969:974   */\n      dup2\n        /* \"#utility.yul\":953:975   */\n      tag_84\n      jump\t// in\n    tag_83:\n        /* \"#utility.yul\":948:951   */\n      dup3\n        /* \"#utility.yul\":941:976   */\n      mstore\n        /* \"#utility.yul\":870:982   */\n      pop\n      pop\n      jump\t// out\n        /* \"#utility.yul\":988:1210   */\n    tag_22:\n        /* \"#utility.yul\":1081:1085   */\n      0x00\n        /* \"#utility.yul\":1119:1121   */\n      0x20\n        /* \"#utility.yul\":1108:1117   */\n      dup3\n        /* \"#utility.yul\":1104:1122   */\n      add\n        /* \"#utility.yul\":1096:1122   */\n      swap1\n      pop\n        /* \"#utility.yul\":1132:1203   */\n      tag_86\n        /* \"#utility.yul\":1200:1201   */\n      0x00\n        /* \"#utility.yul\":1189:1198   */\n      dup4\n        /* \"#utility.yul\":1185:1202   */\n      add\n        /* \"#utility.yul\":1176:1182   */\n      dup5\n        /* \"#utility.yul\":1132:1203   */\n      tag_55\n      jump\t// in\n    tag_86:\n        /* \"#utility.yul\":988:1210   */\n      swap3\n      swap2\n      pop\n      pop\n      jump\t// out\n        /* \"#utility.yul\":1216:1438   */\n    tag_41:\n        /* \"#utility.yul\":1309:1313   */\n      0x00\n        /* \"#utility.yul\":1347:1349   */\n      0x20\n        /* \"#utility.yul\":1336:1345   */\n      dup3\n        /* \"#utility.yul\":1332:1350   */\n      add\n        /* \"#utility.yul\":1324:1350   */\n      swap1\n      pop\n        /* \"#utility.yul\":1360:1431   */\n      tag_88\n        /* \"#utility.yul\":1428:1429   */\n      0x00\n        /* \"#utility.yul\":1417:1426   */\n      dup4\n        /* \"#utility.yul\":1413:1430   */\n      add\n        /* \"#utility.yul\":1404:1410   */\n      dup5\n        /* \"#utility.yul\":1360:1431   */\n      tag_59\n      jump\t// in\n    tag_88:\n        /* \"#utility.yul\":1216:1438   */\n      swap3\n      swap2\n      pop\n      pop\n      jump\t// out\n        /* \"#utility.yul\":1444:1757   */\n    tag_26:\n        /* \"#utility.yul\":1557:1561   */\n      0x00\n        /* \"#utility.yul\":1595:1597   */\n      0x20\n        /* \"#utility.yul\":1584:1593   */\n      dup3\n        /* \"#utility.yul\":1580:1598   */\n      add\n        /* \"#utility.yul\":1572:1598   */\n      swap1\n      pop\n        /* \"#utility.yul\":1644:1653   */\n      dup2\n        /* \"#utility.yul\":1638:1642   */\n      dup2\n        /* \"#utility.yul\":1634:1654   */\n      sub\n        /* \"#utility.yul\":1630:1631   */\n      0x00\n        /* \"#utility.yul\":1619:1628   */\n      dup4\n        /* \"#utility.yul\":1615:1632   */\n      add\n        /* \"#utility.yul\":1608:1655   */\n      mstore\n        /* \"#utility.yul\":1672:1750   */\n      tag_90\n        /* \"#utility.yul\":1745:1749   */\n      dup2\n        /* \"#utility.yul\":1736:1742   */\n      dup5\n        /* \"#utility.yul\":1672:1750   */\n      tag_67\n      jump\t// in\n    tag_90:\n        /* \"#utility.yul\":1664:1750   */\n      swap1\n      pop\n        /* \"#utility.yul\":1444:1757   */\n      swap3\n      swap2\n      pop\n      pop\n      jump\t// out\n        /* \"#utility.yul\":1763:2182   */\n    tag_30:\n        /* \"#utility.yul\":1902:1906   */\n      0x00\n        /* \"#utility.yul\":1940:1942   */\n      0x40\n        /* \"#utility.yul\":1929:1938   */\n      dup3\n        /* \"#utility.yul\":1925:1943   */\n      add\n        /* \"#utility.yul\":1917:1943   */\n      swap1\n      pop\n        /* \"#utility.yul\":1989:1998   */\n      dup2\n        /* \"#utility.yul\":1983:1987   */\n      dup2\n        /* \"#utility.yul\":1979:1999   */\n      sub\n        /* \"#utility.yul\":1975:1976   */\n      0x00\n        /* \"#utility.yul\":1964:1973   */\n      dup4\n        /* \"#utility.yul\":1960:1977   */\n      add\n        /* \"#utility.yul\":1953:2000   */\n      mstore\n        /* \"#utility.yul\":2017:2095   */\n      tag_92\n        /* \"#utility.yul\":2090:2094   */\n      dup2\n        /* \"#utility.yul\":2081:2087   */\n      dup6\n        /* \"#utility.yul\":2017:2095   */\n      tag_67\n      jump\t// in\n    tag_92:\n        /* \"#utility.yul\":2009:2095   */\n      swap1\n      pop\n        /* \"#utility.yul\":2105:2175   */\n      tag_93\n        /* \"#utility.yul\":2171:2173   */\n      0x20\n        /* \"#utility.yul\":2160:2169   */\n      dup4\n        /* \"#utility.yul\":2156:2174   */\n      add\n        /* \"#utility.yul\":2147:2153   */\n      dup5\n        /* \"#utility.yul\":2105:2175   */\n      tag_63\n      jump\t// in\n    tag_93:\n        /* \"#utility.yul\":1763:2182   */\n      swap4\n      swap3\n      pop\n      pop\n      pop\n      jump\t// out\n        /* \"#utility.yul\":2188:2410   */\n    tag_15:\n        /* \"#utility.yul\":2281:2285   */\n      0x00\n        /* \"#utility.yul\":2319:2321   */\n      0x20\n        /* \"#utility.yul\":2308:2317   */\n      dup3\n        /* \"#utility.yul\":2304:2322   */\n      add\n        /* \"#utility.yul\":2296:2322   */\n      swap1\n      pop\n        /* \"#utility.yul\":2332:2403   */\n      tag_95\n        /* \"#utility.yul\":2400:2401   */\n      0x00\n        /* \"#utility.yul\":2389:2398   */\n      dup4\n        /* \"#utility.yul\":2385:2402   */\n      add\n        /* \"#utility.yul\":2376:2382   */\n      dup5\n        /* \"#utility.yul\":2332:2403   */\n      tag_77\n      jump\t// in\n    tag_95:\n        /* \"#utility.yul\":2188:2410   */\n      swap3\n      swap2\n      pop\n      pop\n      jump\t// out\n        /* \"#utility.yul\":2416:2630   */\n    tag_37:\n        /* \"#utility.yul\":2505:2509   */\n      0x00\n        /* \"#utility.yul\":2543:2545   */\n      0x20\n        /* \"#utility.yul\":2532:2541   */\n      dup3\n        /* \"#utility.yul\":2528:2546   */\n      add\n        /* \"#utility.yul\":2520:2546   */\n      swap1\n      pop\n        /* \"#utility.yul\":2556:2623   */\n      tag_97\n        /* \"#utility.yul\":2620:2621   */\n      0x00\n        /* \"#utility.yul\":2609:2618   */\n      dup4\n        /* \"#utility.yul\":2605:2622   */\n      add\n        /* \"#utility.yul\":2596:2602   */\n      dup5\n        /* \"#utility.yul\":2556:2623   */\n      tag_81\n      jump\t// in\n    tag_97:\n        /* \"#utility.yul\":2416:2630   */\n      swap3\n      swap2\n      pop\n      pop\n      jump\t// out\n        /* \"#utility.yul\":2636:2735   */\n    tag_70:\n        /* \"#utility.yul\":2688:2694   */\n      0x00\n        /* \"#utility.yul\":2722:2727   */\n      dup2\n        /* \"#utility.yul\":2716:2728   */\n      mload\n        /* \"#utility.yul\":2706:2728   */\n      swap1\n      pop\n        /* \"#utility.yul\":2636:2735   */\n      swap2\n      swap1\n      pop\n      jump\t// out\n        /* \"#utility.yul\":2741:2910   */\n    tag_72:\n        /* \"#utility.yul\":2825:2836   */\n      0x00\n        /* \"#utility.yul\":2859:2865   */\n      dup3\n        /* \"#utility.yul\":2854:2857   */\n      dup3\n        /* \"#utility.yul\":2847:2866   */\n      mstore\n        /* \"#utility.yul\":2899:2903   */\n      0x20\n        /* \"#utility.yul\":2894:2897   */\n      dup3\n        /* \"#utility.yul\":2890:2904   */\n      add\n        /* \"#utility.yul\":2875:2904   */\n      swap1\n      pop\n        /* \"#utility.yul\":2741:2910   */\n      swap3\n      swap2\n      pop\n      pop\n      jump\t// out\n        /* \"#utility.yul\":2916:3012   */\n    tag_58:\n        /* \"#utility.yul\":2953:2960   */\n      0x00\n        /* \"#utility.yul\":2982:3006   */\n      tag_101\n        /* \"#utility.yul\":3000:3005   */\n      dup3\n        /* \"#utility.yul\":2982:3006   */\n      tag_102\n      jump\t// in\n    tag_101:\n        /* \"#utility.yul\":2971:3006   */\n      swap1\n      pop\n        /* \"#utility.yul\":2916:3012   */\n      swap2\n      swap1\n      pop\n      jump\t// out\n        /* \"#utility.yul\":3018:3095   */\n    tag_62:\n        /* \"#utility.yul\":3055:3062   */\n      0x00\n        /* \"#utility.yul\":3084:3089   */\n      dup2\n        /* \"#utility.yul\":3073:3089   */\n      swap1\n      pop\n        /* \"#utility.yul\":3018:3095   */\n      swap2\n      swap1\n      pop\n      jump\t// out\n        /* \"#utility.yul\":3101:3177   */\n    tag_66:\n        /* \"#utility.yul\":3137:3144   */\n      0x00\n        /* \"#utility.yul\":3166:3171   */\n      dup2\n        /* \"#utility.yul\":3155:3171   */\n      swap1\n      pop\n        /* \"#utility.yul\":3101:3177   */\n      swap2\n      swap1\n      pop\n      jump\t// out\n        /* \"#utility.yul\":3183:3309   */\n    tag_102:\n        /* \"#utility.yul\":3220:3227   */\n      0x00\n        /* \"#utility.yul\":3260:3302   */\n      0xffffffffffffffffffffffffffffffffffffffff\n        /* \"#utility.yul\":3253:3258   */\n      dup3\n        /* \"#utility.yul\":3249:3303   */\n      and\n        /* \"#utility.yul\":3238:3303   */\n      swap1\n      pop\n        /* \"#utility.yul\":3183:3309   */\n      swap2\n      swap1\n      pop\n      jump\t// out\n        /* \"#utility.yul\":3315:3392   */\n    tag_80:\n        /* \"#utility.yul\":3352:3359   */\n      0x00\n        /* \"#utility.yul\":3381:3386   */\n      dup2\n        /* \"#utility.yul\":3370:3386   */\n      swap1\n      pop\n        /* \"#utility.yul\":3315:3392   */\n      swap2\n      swap1\n      pop\n      jump\t// out\n        /* \"#utility.yul\":3398:3484   */\n    tag_84:\n        /* \"#utility.yul\":3433:3440   */\n      0x00\n        /* \"#utility.yul\":3473:3477   */\n      0xff\n        /* \"#utility.yul\":3466:3471   */\n      dup3\n        /* \"#utility.yul\":3462:3478   */\n      and\n        /* \"#utility.yul\":3451:3478   */\n      swap1\n      pop\n        /* \"#utility.yul\":3398:3484   */\n      swap2\n      swap1\n      pop\n      jump\t// out\n        /* \"#utility.yul\":3490:3797   */\n    tag_74:\n        /* \"#utility.yul\":3558:3559   */\n      0x00\n        /* \"#utility.yul\":3568:3681   */\n    tag_109:\n        /* \"#utility.yul\":3582:3588   */\n      dup4\n        /* \"#utility.yul\":3579:3580   */\n      dup2\n        /* \"#utility.yul\":3576:3589   */\n      lt\n        /* \"#utility.yul\":3568:3681   */\n      iszero\n      tag_111\n      jumpi\n        /* \"#utility.yul\":3667:3668   */\n      dup1\n        /* \"#utility.yul\":3662:3665   */\n      dup3\n        /* \"#utility.yul\":3658:3669   */\n      add\n        /* \"#utility.yul\":3652:3670   */\n      mload\n        /* \"#utility.yul\":3648:3649   */\n      dup2\n        /* \"#utility.yul\":3643:3646   */\n      dup5\n        /* \"#utility.yul\":3639:3650   */\n      add\n        /* \"#utility.yul\":3632:3671   */\n      mstore\n        /* \"#utility.yul\":3604:3606   */\n      0x20\n        /* \"#utility.yul\":3601:3602   */\n      dup2\n        /* \"#utility.yul\":3597:3607   */\n      add\n        /* \"#utility.yul\":3592:3607   */\n      swap1\n      pop\n        /* \"#utility.yul\":3568:3681   */\n      jump(tag_109)\n    tag_111:\n        /* \"#utility.yul\":3699:3705   */\n      dup4\n        /* \"#utility.yul\":3696:3697   */\n      dup2\n        /* \"#utility.yul\":3693:3706   */\n      gt\n        /* \"#utility.yul\":3690:3791   */\n      iszero\n      tag_112\n      jumpi\n        /* \"#utility.yul\":3779:3780   */\n      0x00\n        /* \"#utility.yul\":3770:3776   */\n      dup5\n        /* \"#utility.yul\":3765:3768   */\n      dup5\n        /* \"#utility.yul\":3761:3777   */\n      add\n        /* \"#utility.yul\":3754:3781   */\n      mstore\n        /* \"#utility.yul\":3690:3791   */\n    tag_112:\n        /* \"#utility.yul\":3539:3797   */\n      pop\n        /* \"#utility.yul\":3490:3797   */\n      pop\n      pop\n      pop\n      jump\t// out\n        /* \"#utility.yul\":3803:4123   */\n    tag_44:\n        /* \"#utility.yul\":3847:3853   */\n      0x00\n        /* \"#utility.yul\":3884:3885   */\n      0x02\n        /* \"#utility.yul\":3878:3882   */\n      dup3\n        /* \"#utility.yul\":3874:3886   */\n      div\n        /* \"#utility.yul\":3864:3886   */\n      swap1\n      pop\n        /* \"#utility.yul\":3931:3932   */\n      0x01\n        /* \"#utility.yul\":3925:3929   */\n      dup3\n        /* \"#utility.yul\":3921:3933   */\n      and\n        /* \"#utility.yul\":3952:3970   */\n      dup1\n        /* \"#utility.yul\":3942:4023   */\n      tag_114\n      jumpi\n        /* \"#utility.yul\":4008:4012   */\n      0x7f\n        /* \"#utility.yul\":4000:4006   */\n      dup3\n        /* \"#utility.yul\":3996:4013   */\n      and\n        /* \"#utility.yul\":3986:4013   */\n      swap2\n      pop\n        /* \"#utility.yul\":3942:4023   */\n    tag_114:\n        /* \"#utility.yul\":4070:4072   */\n      0x20\n        /* \"#utility.yul\":4062:4068   */\n      dup3\n        /* \"#utility.yul\":4059:4073   */\n      lt\n        /* \"#utility.yul\":4039:4057   */\n      dup2\n        /* \"#utility.yul\":4036:4074   */\n      eq\n        /* \"#utility.yul\":4033:4117   */\n      iszero\n      tag_115\n      jumpi\n        /* \"#utility.yul\":4089:4107   */\n      tag_116\n      tag_117\n      jump\t// in\n    tag_116:\n        /* \"#utility.yul\":4033:4117   */\n    tag_115:\n        /* \"#utility.yul\":3854:4123   */\n      pop\n        /* \"#utility.yul\":3803:4123   */\n      swap2\n      swap1\n      pop\n      jump\t// out\n        /* \"#utility.yul\":4129:4309   */\n    tag_117:\n        /* \"#utility.yul\":4177:4254   */\n      0x4e487b7100000000000000000000000000000000000000000000000000000000\n        /* \"#utility.yul\":4174:4175   */\n      0x00\n        /* \"#utility.yul\":4167:4255   */\n      mstore\n        /* \"#utility.yul\":4274:4278   */\n      0x22\n        /* \"#utility.yul\":4271:4272   */\n      0x04\n        /* \"#utility.yul\":4264:4279   */\n      mstore\n        /* \"#utility.yul\":4298:4302   */\n      0x24\n        /* \"#utility.yul\":4295:4296   */\n      0x00\n        /* \"#utility.yul\":4288:4303   */\n      revert\n        /* \"#utility.yul\":4315:4417   */\n    tag_76:\n        /* \"#utility.yul\":4356:4362   */\n      0x00\n        /* \"#utility.yul\":4407:4409   */\n      0x1f\n        /* \"#utility.yul\":4403:4410   */\n      not\n        /* \"#utility.yul\":4398:4400   */\n      0x1f\n        /* \"#utility.yul\":4391:4396   */\n      dup4\n        /* \"#utility.yul\":4387:4401   */\n      add\n        /* \"#utility.yul\":4383:4411   */\n      and\n        /* \"#utility.yul\":4373:4411   */\n      swap1\n      pop\n        /* \"#utility.yul\":4315:4417   */\n      swap2\n      swap1\n      pop\n      jump\t// out\n\n    auxdata: 0xa2646970667358221220bab5e35538545167d6386eeab2b0c25219771aa70b63151e44a4bd59f1dd864e64736f6c63430008070033\n}\n",
				"bytecode": {
					"linkReferences": {},
					"object": "6080604052600160005560026001556003600260006101000a81548160ff021916908360ff1602179055506040518060400160405280600e81526020017f6d756368697261206a756e696f7200000000000000000000000000000000000081525060039080519060200190610075929190610177565b507f6a756e696f72000000000000000000000000000000000000000000000000000060045573d9145cce52d386f254917e481eb44e9943f39138600560006101000a81548173ffffffffffffffffffffffffffffffffffffffff021916908373ffffffffffffffffffffffffffffffffffffffff16021790555060405180604001604052806040518060400160405280600681526020017f6a756e696f7200000000000000000000000000000000000000000000000000008152508152602001600281525060066000820151816000019080519060200190610158929190610177565b5060208201518160010155505034801561017157600080fd5b5061027b565b8280546101839061021a565b90600052602060002090601f0160209004810192826101a557600085556101ec565b82601f106101be57805160ff19168380011785556101ec565b828001600101855582156101ec579182015b828111156101eb5782518255916020019190600101906101d0565b5b5090506101f991906101fd565b5090565b5b808211156102165760008160009055506001016101fe565b5090565b6000600282049050600182168061023257607f821691505b602082108114156102465761024561024c565b5b50919050565b7f4e487b7100000000000000000000000000000000000000000000000000000000600052602260045260246000fd5b6105958061028a6000396000f3fe608060405234801561001057600080fd5b50600436106100885760003560e01c80638bc9fe6c1161005b5780638bc9fe6c14610105578063a7dbce1c14610124578063e2a4b2af14610142578063fae2dd4b1461016057610088565b806306540f7e1461008d57806320965255146100ab57806326b85ee1146100c9578063492bfa18146100e7575b600080fd5b61009561017e565b6040516100a2919061040b565b60405180910390f35b6100b3610184565b6040516100c0919061040b565b60405180910390f35b6100d1610192565b6040516100de9190610383565b60405180910390f35b6100ef6101b8565b6040516100fc91906103b9565b60405180910390f35b61010d610246565b60405161011b9291906103db565b60405180910390f35b61012c6102e0565b604051610139919061040b565b60405180910390f35b61014a6102e6565b6040516101579190610426565b60405180910390f35b6101686102f9565b604051610175919061039e565b60405180910390f35b60005481565b600080600a90508091505090565b600560009054906101000a900473ffffffffffffffffffffffffffffffffffffffff1681565b600380546101c5906104ed565b80601f01602080910402602001604051908101604052809291908181526020018280546101f1906104ed565b801561023e5780601f106102135761010080835404028352916020019161023e565b820191906000526020600020905b81548152906001019060200180831161022157829003601f168201915b505050505081565b6006806000018054610257906104ed565b80601f0160208091040260200160405190810160405280929190818152602001828054610283906104ed565b80156102d05780601f106102a5576101008083540402835291602001916102d0565b820191906000526020600020905b8154815290600101906020018083116102b357829003601f168201915b5050505050908060010154905082565b60015481565b600260009054906101000a900460ff1681565b60045481565b6103088161045d565b82525050565b6103178161046f565b82525050565b61032681610479565b82525050565b600061033782610441565b610341818561044c565b93506103518185602086016104ba565b61035a8161054e565b840191505092915050565b61036e816104a3565b82525050565b61037d816104ad565b82525050565b600060208201905061039860008301846102ff565b92915050565b60006020820190506103b3600083018461030e565b92915050565b600060208201905081810360008301526103d3818461032c565b905092915050565b600060408201905081810360008301526103f5818561032c565b9050610404602083018461031d565b9392505050565b60006020820190506104206000830184610365565b92915050565b600060208201905061043b6000830184610374565b92915050565b600081519050919050565b600082825260208201905092915050565b600061046882610483565b9050919050565b6000819050919050565b6000819050919050565b600073ffffffffffffffffffffffffffffffffffffffff82169050919050565b6000819050919050565b600060ff82169050919050565b60005b838110156104d85780820151818401526020810190506104bd565b838111156104e7576000848401525b50505050565b6000600282049050600182168061050557607f821691505b602082108114156105195761051861051f565b5b50919050565b7f4e487b7100000000000000000000000000000000000000000000000000000000600052602260045260246000fd5b6000601f19601f830116905091905056fea2646970667358221220bab5e35538545167d6386eeab2b0c25219771aa70b63151e44a4bd59f1dd864e64736f6c63430008070033",
					"opcodes": "PUSH1 0x80 PUSH1 0x40 MSTORE PUSH1 0x1 PUSH1 0x0 SSTORE PUSH1 0x2 PUSH1 0x1 SSTORE PUSH1 0x3 PUSH1 0x2 PUSH1 0x0 PUSH2 0x100 EXP DUP2 SLOAD DUP2 PUSH1 0xFF MUL NOT AND SWAP1 DUP4 PUSH1 0xFF AND MUL OR SWAP1 SSTORE POP PUSH1 0x40 MLOAD DUP1 PUSH1 0x40 ADD PUSH1 0x40 MSTORE DUP1 PUSH1 0xE DUP2 MSTORE PUSH1 0x20 ADD PUSH32 0x6D756368697261206A756E696F72000000000000000000000000000000000000 DUP2 MSTORE POP PUSH1 0x3 SWAP1 DUP1 MLOAD SWAP1 PUSH1 0x20 ADD SWAP1 PUSH2 0x75 SWAP3 SWAP2 SWAP1 PUSH2 0x177 JUMP JUMPDEST POP PUSH32 0x6A756E696F720000000000000000000000000000000000000000000000000000 PUSH1 0x4 SSTORE PUSH20 0xD9145CCE52D386F254917E481EB44E9943F39138 PUSH1 0x5 PUSH1 0x0 PUSH2 0x100 EXP DUP2 SLOAD DUP2 PUSH20 0xFFFFFFFFFFFFFFFFFFFFFFFFFFFFFFFFFFFFFFFF MUL NOT AND SWAP1 DUP4 PUSH20 0xFFFFFFFFFFFFFFFFFFFFFFFFFFFFFFFFFFFFFFFF AND MUL OR SWAP1 SSTORE POP PUSH1 0x40 MLOAD DUP1 PUSH1 0x40 ADD PUSH1 0x40 MSTORE DUP1 PUSH1 0x40 MLOAD DUP1 PUSH1 0x40 ADD PUSH1 0x40 MSTORE DUP1 PUSH1 0x6 DUP2 MSTORE PUSH1 0x20 ADD PUSH32 0x6A756E696F720000000000000000000000000000000000000000000000000000 DUP2 MSTORE POP DUP2 MSTORE PUSH1 0x20 ADD PUSH1 0x2 DUP2 MSTORE POP PUSH1 0x6 PUSH1 0x0 DUP3 ADD MLOAD DUP2 PUSH1 0x0 ADD SWAP1 DUP1 MLOAD SWAP1 PUSH1 0x20 ADD SWAP1 PUSH2 0x158 SWAP3 SWAP2 SWAP1 PUSH2 0x177 JUMP JUMPDEST POP PUSH1 0x20 DUP3 ADD MLOAD DUP2 PUSH1 0x1 ADD SSTORE POP POP CALLVALUE DUP1 ISZERO PUSH2 0x171 JUMPI PUSH1 0x0 DUP1 REVERT JUMPDEST POP PUSH2 0x27B JUMP JUMPDEST DUP3 DUP1 SLOAD PUSH2 0x183 SWAP1 PUSH2 0x21A JUMP JUMPDEST SWAP1 PUSH1 0x0 MSTORE PUSH1 0x20 PUSH1 0x0 KECCAK256 SWAP1 PUSH1 0x1F ADD PUSH1 0x20 SWAP1 DIV DUP2 ADD SWAP3 DUP3 PUSH2 0x1A5 JUMPI PUSH1 0x0 DUP6 SSTORE PUSH2 0x1EC JUMP JUMPDEST DUP3 PUSH1 0x1F LT PUSH2 0x1BE JUMPI DUP1 MLOAD PUSH1 0xFF NOT AND DUP4 DUP1 ADD OR DUP6 SSTORE PUSH2 0x1EC JUMP JUMPDEST DUP3 DUP1 ADD PUSH1 0x1 ADD DUP6 SSTORE DUP3 ISZERO PUSH2 0x1EC JUMPI SWAP2 DUP3 ADD JUMPDEST DUP3 DUP2 GT ISZERO PUSH2 0x1EB JUMPI DUP3 MLOAD DUP3 SSTORE SWAP2 PUSH1 0x20 ADD SWAP2 SWAP1 PUSH1 0x1 ADD SWAP1 PUSH2 0x1D0 JUMP JUMPDEST JUMPDEST POP SWAP1 POP PUSH2 0x1F9 SWAP2 SWAP1 PUSH2 0x1FD JUMP JUMPDEST POP SWAP1 JUMP JUMPDEST JUMPDEST DUP1 DUP3 GT ISZERO PUSH2 0x216 JUMPI PUSH1 0x0 DUP2 PUSH1 0x0 SWAP1 SSTORE POP PUSH1 0x1 ADD PUSH2 0x1FE JUMP JUMPDEST POP SWAP1 JUMP JUMPDEST PUSH1 0x0 PUSH1 0x2 DUP3 DIV SWAP1 POP PUSH1 0x1 DUP3 AND DUP1 PUSH2 0x232 JUMPI PUSH1 0x7F DUP3 AND SWAP2 POP JUMPDEST PUSH1 0x20 DUP3 LT DUP2 EQ ISZERO PUSH2 0x246 JUMPI PUSH2 0x245 PUSH2 0x24C JUMP JUMPDEST JUMPDEST POP SWAP2 SWAP1 POP JUMP JUMPDEST PUSH32 0x4E487B7100000000000000000000000000000000000000000000000000000000 PUSH1 0x0 MSTORE PUSH1 0x22 PUSH1 0x4 MSTORE PUSH1 0x24 PUSH1 0x0 REVERT JUMPDEST PUSH2 0x595 DUP1 PUSH2 0x28A PUSH1 0x0 CODECOPY PUSH1 0x0 RETURN INVALID PUSH1 0x80 PUSH1 0x40 MSTORE CALLVALUE DUP1 ISZERO PUSH2 0x10 JUMPI PUSH1 0x0 DUP1 REVERT JUMPDEST POP PUSH1 0x4 CALLDATASIZE LT PUSH2 0x88 JUMPI PUSH1 0x0 CALLDATALOAD PUSH1 0xE0 SHR DUP1 PUSH4 0x8BC9FE6C GT PUSH2 0x5B JUMPI DUP1 PUSH4 0x8BC9FE6C EQ PUSH2 0x105 JUMPI DUP1 PUSH4 0xA7DBCE1C EQ PUSH2 0x124 JUMPI DUP1 PUSH4 0xE2A4B2AF EQ PUSH2 0x142 JUMPI DUP1 PUSH4 0xFAE2DD4B EQ PUSH2 0x160 JUMPI PUSH2 0x88 JUMP JUMPDEST DUP1 PUSH4 0x6540F7E EQ PUSH2 0x8D JUMPI DUP1 PUSH4 0x20965255 EQ PUSH2 0xAB JUMPI DUP1 PUSH4 0x26B85EE1 EQ PUSH2 0xC9 JUMPI DUP1 PUSH4 0x492BFA18 EQ PUSH2 0xE7 JUMPI JUMPDEST PUSH1 0x0 DUP1 REVERT JUMPDEST PUSH2 0x95 PUSH2 0x17E JUMP JUMPDEST PUSH1 0x40 MLOAD PUSH2 0xA2 SWAP2 SWAP1 PUSH2 0x40B JUMP JUMPDEST PUSH1 0x40 MLOAD DUP1 SWAP2 SUB SWAP1 RETURN JUMPDEST PUSH2 0xB3 PUSH2 0x184 JUMP JUMPDEST PUSH1 0x40 MLOAD PUSH2 0xC0 SWAP2 SWAP1 PUSH2 0x40B JUMP JUMPDEST PUSH1 0x40 MLOAD DUP1 SWAP2 SUB SWAP1 RETURN JUMPDEST PUSH2 0xD1 PUSH2 0x192 JUMP JUMPDEST PUSH1 0x40 MLOAD PUSH2 0xDE SWAP2 SWAP1 PUSH2 0x383 JUMP JUMPDEST PUSH1 0x40 MLOAD DUP1 SWAP2 SUB SWAP1 RETURN JUMPDEST PUSH2 0xEF PUSH2 0x1B8 JUMP JUMPDEST PUSH1 0x40 MLOAD PUSH2 0xFC SWAP2 SWAP1 PUSH2 0x3B9 JUMP JUMPDEST PUSH1 0x40 MLOAD DUP1 SWAP2 SUB SWAP1 RETURN JUMPDEST PUSH2 0x10D PUSH2 0x246 JUMP JUMPDEST PUSH1 0x40 MLOAD PUSH2 0x11B SWAP3 SWAP2 SWAP1 PUSH2 0x3DB JUMP JUMPDEST PUSH1 0x40 MLOAD DUP1 SWAP2 SUB SWAP1 RETURN JUMPDEST PUSH2 0x12C PUSH2 0x2E0 JUMP JUMPDEST PUSH1 0x40 MLOAD PUSH2 0x139 SWAP2 SWAP1 PUSH2 0x40B JUMP JUMPDEST PUSH1 0x40 MLOAD DUP1 SWAP2 SUB SWAP1 RETURN JUMPDEST PUSH2 0x14A PUSH2 0x2E6 JUMP JUMPDEST PUSH1 0x40 MLOAD PUSH2 0x157 SWAP2 SWAP1 PUSH2 0x426 JUMP JUMPDEST PUSH1 0x40 MLOAD DUP1 SWAP2 SUB SWAP1 RETURN JUMPDEST PUSH2 0x168 PUSH2 0x2F9 JUMP JUMPDEST PUSH1 0x40 MLOAD PUSH2 0x175 SWAP2 SWAP1 PUSH2 0x39E JUMP JUMPDEST PUSH1 0x40 MLOAD DUP1 SWAP2 SUB SWAP1 RETURN JUMPDEST PUSH1 0x0 SLOAD DUP2 JUMP JUMPDEST PUSH1 0x0 DUP1 PUSH1 0xA SWAP1 POP DUP1 SWAP2 POP POP SWAP1 JUMP JUMPDEST PUSH1 0x5 PUSH1 0x0 SWAP1 SLOAD SWAP1 PUSH2 0x100 EXP SWAP1 DIV PUSH20 0xFFFFFFFFFFFFFFFFFFFFFFFFFFFFFFFFFFFFFFFF AND DUP2 JUMP JUMPDEST PUSH1 0x3 DUP1 SLOAD PUSH2 0x1C5 SWAP1 PUSH2 0x4ED JUMP JUMPDEST DUP1 PUSH1 0x1F ADD PUSH1 0x20 DUP1 SWAP2 DIV MUL PUSH1 0x20 ADD PUSH1 0x40 MLOAD SWAP1 DUP2 ADD PUSH1 0x40 MSTORE DUP1 SWAP3 SWAP2 SWAP1 DUP2 DUP2 MSTORE PUSH1 0x20 ADD DUP3 DUP1 SLOAD PUSH2 0x1F1 SWAP1 PUSH2 0x4ED JUMP JUMPDEST DUP1 ISZERO PUSH2 0x23E JUMPI DUP1 PUSH1 0x1F LT PUSH2 0x213 JUMPI PUSH2 0x100 DUP1 DUP4 SLOAD DIV MUL DUP4 MSTORE SWAP2 PUSH1 0x20 ADD SWAP2 PUSH2 0x23E JUMP JUMPDEST DUP3 ADD SWAP2 SWAP1 PUSH1 0x0 MSTORE PUSH1 0x20 PUSH1 0x0 KECCAK256 SWAP1 JUMPDEST DUP2 SLOAD DUP2 MSTORE SWAP1 PUSH1 0x1 ADD SWAP1 PUSH1 0x20 ADD DUP1 DUP4 GT PUSH2 0x221 JUMPI DUP3 SWAP1 SUB PUSH1 0x1F AND DUP3 ADD SWAP2 JUMPDEST POP POP POP POP POP DUP2 JUMP JUMPDEST PUSH1 0x6 DUP1 PUSH1 0x0 ADD DUP1 SLOAD PUSH2 0x257 SWAP1 PUSH2 0x4ED JUMP JUMPDEST DUP1 PUSH1 0x1F ADD PUSH1 0x20 DUP1 SWAP2 DIV MUL PUSH1 0x20 ADD PUSH1 0x40 MLOAD SWAP1 DUP2 ADD PUSH1 0x40 MSTORE DUP1 SWAP3 SWAP2 SWAP1 DUP2 DUP2 MSTORE PUSH1 0x20 ADD DUP3 DUP1 SLOAD PUSH2 0x283 SWAP1 PUSH2 0x4ED JUMP JUMPDEST DUP1 ISZERO PUSH2 0x2D0 JUMPI DUP1 PUSH1 0x1F LT PUSH2 0x2A5 JUMPI PUSH2 0x100 DUP1 DUP4 SLOAD DIV MUL DUP4 MSTORE SWAP2 PUSH1 0x20 ADD SWAP2 PUSH2 0x2D0 JUMP JUMPDEST DUP3 ADD SWAP2 SWAP1 PUSH1 0x0 MSTORE PUSH1 0x20 PUSH1 0x0 KECCAK256 SWAP1 JUMPDEST DUP2 SLOAD DUP2 MSTORE SWAP1 PUSH1 0x1 ADD SWAP1 PUSH1 0x20 ADD DUP1 DUP4 GT PUSH2 0x2B3 JUMPI DUP3 SWAP1 SUB PUSH1 0x1F AND DUP3 ADD SWAP2 JUMPDEST POP POP POP POP POP SWAP1 DUP1 PUSH1 0x1 ADD SLOAD SWAP1 POP DUP3 JUMP JUMPDEST PUSH1 0x1 SLOAD DUP2 JUMP JUMPDEST PUSH1 0x2 PUSH1 0x0 SWAP1 SLOAD SWAP1 PUSH2 0x100 EXP SWAP1 DIV PUSH1 0xFF AND DUP2 JUMP JUMPDEST PUSH1 0x4 SLOAD DUP2 JUMP JUMPDEST PUSH2 0x308 DUP2 PUSH2 0x45D JUMP JUMPDEST DUP3 MSTORE POP POP JUMP JUMPDEST PUSH2 0x317 DUP2 PUSH2 0x46F JUMP JUMPDEST DUP3 MSTORE POP POP JUMP JUMPDEST PUSH2 0x326 DUP2 PUSH2 0x479 JUMP JUMPDEST DUP3 MSTORE POP POP JUMP JUMPDEST PUSH1 0x0 PUSH2 0x337 DUP3 PUSH2 0x441 JUMP JUMPDEST PUSH2 0x341 DUP2 DUP6 PUSH2 0x44C JUMP JUMPDEST SWAP4 POP PUSH2 0x351 DUP2 DUP6 PUSH1 0x20 DUP7 ADD PUSH2 0x4BA JUMP JUMPDEST PUSH2 0x35A DUP2 PUSH2 0x54E JUMP JUMPDEST DUP5 ADD SWAP2 POP POP SWAP3 SWAP2 POP POP JUMP JUMPDEST PUSH2 0x36E DUP2 PUSH2 0x4A3 JUMP JUMPDEST DUP3 MSTORE POP POP JUMP JUMPDEST PUSH2 0x37D DUP2 PUSH2 0x4AD JUMP JUMPDEST DUP3 MSTORE POP POP JUMP JUMPDEST PUSH1 0x0 PUSH1 0x20 DUP3 ADD SWAP1 POP PUSH2 0x398 PUSH1 0x0 DUP4 ADD DUP5 PUSH2 0x2FF JUMP JUMPDEST SWAP3 SWAP2 POP POP JUMP JUMPDEST PUSH1 0x0 PUSH1 0x20 DUP3 ADD SWAP1 POP PUSH2 0x3B3 PUSH1 0x0 DUP4 ADD DUP5 PUSH2 0x30E JUMP JUMPDEST SWAP3 SWAP2 POP POP JUMP JUMPDEST PUSH1 0x0 PUSH1 0x20 DUP3 ADD SWAP1 POP DUP2 DUP2 SUB PUSH1 0x0 DUP4 ADD MSTORE PUSH2 0x3D3 DUP2 DUP5 PUSH2 0x32C JUMP JUMPDEST SWAP1 POP SWAP3 SWAP2 POP POP JUMP JUMPDEST PUSH1 0x0 PUSH1 0x40 DUP3 ADD SWAP1 POP DUP2 DUP2 SUB PUSH1 0x0 DUP4 ADD MSTORE PUSH2 0x3F5 DUP2 DUP6 PUSH2 0x32C JUMP JUMPDEST SWAP1 POP PUSH2 0x404 PUSH1 0x20 DUP4 ADD DUP5 PUSH2 0x31D JUMP JUMPDEST SWAP4 SWAP3 POP POP POP JUMP JUMPDEST PUSH1 0x0 PUSH1 0x20 DUP3 ADD SWAP1 POP PUSH2 0x420 PUSH1 0x0 DUP4 ADD DUP5 PUSH2 0x365 JUMP JUMPDEST SWAP3 SWAP2 POP POP JUMP JUMPDEST PUSH1 0x0 PUSH1 0x20 DUP3 ADD SWAP1 POP PUSH2 0x43B PUSH1 0x0 DUP4 ADD DUP5 PUSH2 0x374 JUMP JUMPDEST SWAP3 SWAP2 POP POP JUMP JUMPDEST PUSH1 0x0 DUP2 MLOAD SWAP1 POP SWAP2 SWAP1 POP JUMP JUMPDEST PUSH1 0x0 DUP3 DUP3 MSTORE PUSH1 0x20 DUP3 ADD SWAP1 POP SWAP3 SWAP2 POP POP JUMP JUMPDEST PUSH1 0x0 PUSH2 0x468 DUP3 PUSH2 0x483 JUMP JUMPDEST SWAP1 POP SWAP2 SWAP1 POP JUMP JUMPDEST PUSH1 0x0 DUP2 SWAP1 POP SWAP2 SWAP1 POP JUMP JUMPDEST PUSH1 0x0 DUP2 SWAP1 POP SWAP2 SWAP1 POP JUMP JUMPDEST PUSH1 0x0 PUSH20 0xFFFFFFFFFFFFFFFFFFFFFFFFFFFFFFFFFFFFFFFF DUP3 AND SWAP1 POP SWAP2 SWAP1 POP JUMP JUMPDEST PUSH1 0x0 DUP2 SWAP1 POP SWAP2 SWAP1 POP JUMP JUMPDEST PUSH1 0x0 PUSH1 0xFF DUP3 AND SWAP1 POP SWAP2 SWAP1 POP JUMP JUMPDEST PUSH1 0x0 JUMPDEST DUP4 DUP2 LT ISZERO PUSH2 0x4D8 JUMPI DUP1 DUP3 ADD MLOAD DUP2 DUP5 ADD MSTORE PUSH1 0x20 DUP2 ADD SWAP1 POP PUSH2 0x4BD JUMP JUMPDEST DUP4 DUP2 GT ISZERO PUSH2 0x4E7 JUMPI PUSH1 0x0 DUP5 DUP5 ADD MSTORE JUMPDEST POP POP POP POP JUMP JUMPDEST PUSH1 0x0 PUSH1 0x2 DUP3 DIV SWAP1 POP PUSH1 0x1 DUP3 AND DUP1 PUSH2 0x505 JUMPI PUSH1 0x7F DUP3 AND SWAP2 POP JUMPDEST PUSH1 0x20 DUP3 LT DUP2 EQ ISZERO PUSH2 0x519 JUMPI PUSH2 0x518 PUSH2 0x51F JUMP JUMPDEST JUMPDEST POP SWAP2 SWAP1 POP JUMP JUMPDEST PUSH32 0x4E487B7100000000000000000000000000000000000000000000000000000000 PUSH1 0x0 MSTORE PUSH1 0x22 PUSH1 0x4 MSTORE PUSH1 0x24 PUSH1 0x0 REVERT JUMPDEST PUSH1 0x0 PUSH1 0x1F NOT PUSH1 0x1F DUP4 ADD AND SWAP1 POP SWAP2 SWAP1 POP JUMP INVALID LOG2 PUSH5 0x6970667358 0x22 SLT KECCAK256 0xBA 0xB5 0xE3 SSTORE CODESIZE SLOAD MLOAD PUSH8 0xD6386EEAB2B0C252 NOT PUSH24 0x1AA70B63151E44A4BD59F1DD864E64736F6C634300080700 CALLER "
				},
				"gasEstimates": {
					"creation": {
						"codeDepositCost": "285800",
						"executionCost": "infinite",
						"totalCost": "infinite"
					},
					"external": {
						"getValue()": "373",
						"myAddress()": "2559",
						"myName()": "2495",
						"myString()": "infinite",
						"myStruct()": "infinite",
						"myUint()": "2430",
						"myUint256()": "2451",
						"myUint8()": "2515"
					}
				},
				"methodIdentifiers": {
					"getValue()": "20965255",
					"myAddress()": "26b85ee1",
					"myName()": "fae2dd4b",
					"myString()": "492bfa18",
					"myStruct()": "8bc9fe6c",
					"myUint()": "06540f7e",
					"myUint256()": "a7dbce1c",
					"myUint8()": "e2a4b2af"
				}
			},
			"storageLayout": {
				"storage": [
					{
						"astId": 4,
						"contract": "contracts/MyContract.sol:MyContract",
						"label": "myUint",
						"offset": 0,
						"slot": "0",
						"type": "t_uint256"
					},
					{
						"astId": 7,
						"contract": "contracts/MyContract.sol:MyContract",
						"label": "myUint256",
						"offset": 0,
						"slot": "1",
						"type": "t_uint256"
					},
					{
						"astId": 10,
						"contract": "contracts/MyContract.sol:MyContract",
						"label": "myUint8",
						"offset": 0,
						"slot": "2",
						"type": "t_uint8"
					},
					{
						"astId": 13,
						"contract": "contracts/MyContract.sol:MyContract",
						"label": "myString",
						"offset": 0,
						"slot": "3",
						"type": "t_string_storage"
					},
					{
						"astId": 16,
						"contract": "contracts/MyContract.sol:MyContract",
						"label": "myName",
						"offset": 0,
						"slot": "4",
						"type": "t_bytes32"
					},
					{
						"astId": 19,
						"contract": "contracts/MyContract.sol:MyContract",
						"label": "myAddress",
						"offset": 0,
						"slot": "5",
						"type": "t_address"
					},
					{
						"astId": 31,
						"contract": "contracts/MyContract.sol:MyContract",
						"label": "myStruct",
						"offset": 0,
						"slot": "6",
						"type": "t_struct(MyStruct)24_storage"
					}
				],
				"types": {
					"t_address": {
						"encoding": "inplace",
						"label": "address",
						"numberOfBytes": "20"
					},
					"t_bytes32": {
						"encoding": "inplace",
						"label": "bytes32",
						"numberOfBytes": "32"
					},
					"t_int256": {
						"encoding": "inplace",
						"label": "int256",
						"numberOfBytes": "32"
					},
					"t_string_storage": {
						"encoding": "bytes",
						"label": "string",
						"numberOfBytes": "32"
					},
					"t_struct(MyStruct)24_storage": {
						"encoding": "inplace",
						"label": "struct MyContract.MyStruct",
						"members": [
							{
								"astId": 21,
								"contract": "contracts/MyContract.sol:MyContract",
								"label": "name",
								"offset": 0,
								"slot": "0",
								"type": "t_string_storage"
							},
							{
								"astId": 23,
								"contract": "contracts/MyContract.sol:MyContract",
								"label": "number",
								"offset": 0,
								"slot": "1",
								"type": "t_int256"
							}
						],
						"numberOfBytes": "64"
					},
					"t_uint256": {
						"encoding": "inplace",
						"label": "uint256",
						"numberOfBytes": "32"
					},
					"t_uint8": {
						"encoding": "inplace",
						"label": "uint8",
						"numberOfBytes": "1"
					}
				}
			},
			"userdoc": {
				"kind": "user",
				"methods": {},
				"version": 1
			}
		}
	}
}